:1000000000800020BD010000B536000079360000F8
:100010007936000079360000793600007936000024
:10002000793600007936000079360000B5360000D8
:10003000B536000079360000B5360000693600009C
:10004000B5360000B5360000B5360000B536000004
:10005000B5360000B5360000B5360000B5360000F4
:10006000B5360000B5360000B5360000B5360000E4
:10007000B5360000B5360000B5360000B5360000D4
:10008000B5360000B5360000B5360000B5360000C4
:10009000B5360000B5360000B5360000B5360000B4
:1000A000B5360000B5360000B5360000B5360000A4
:1000B000B5360000B5360000B5360000B536000094
:1000C000B5360000B5360000B5360000B536000084
:1000D000B5360000B5360000B5360000B536000074
:1000E000B5360000B5360000B5360000B536000064
:1000F000B5360000153D0000B53600002D44000067
:10010000B5360000A9490000B5360000B53600003C
:10011000B5360000B5360000B5360000B536000033
:10012000B5360000B5360000B5360000B536000023
:10013000B5360000B5360000B5360000B536000013
:10014000B5360000B5360000B5360000B536000003
:10015000B5360000B5360000B5360000B5360000F3
:10016000B53600001D2A0000B5360000B536000087
:10017000B5360000B5360000B5360000B5360000D3
:10018000B5360000B5360000B5360000B5360000C3
:10019000B5360000B5360000B5360000B5360000B3
:1001A000B5360000B5360000B5360000B5360000A3
:1001B000B5360000B5360000B5360000574B4CF29E
:1001C000205210B51A804DF628121A8000BF00BFC9
:1001D00003F074FA524B4FF010621A60514A9A6061
:1001E000514ADA60A3F53043203B1A6812F480725A
:1001F00004D14E490A604FF4A8521A604C4B1A7849
:10020000110703D51A7842F008021A70494B4A4C7C
:100210004A482A221A704A4A00239918A14203D256
:10022000195899500433F8E7464B474900228B424E
:1002300002D243F8042BFAE74448454900235A58B0
:100240001A500433B3F5DE7FF9D1424B424A802184
:1002500003F8011B9342FBD1404B3C4A1A60404BD0
:100260000A221A70A3F5805324225A70A0221A7011
:100270009A799207FCD59A79D406FCD4394A9379B5
:1002800003F00C03082B374BF9D103221A714022DB
:100290005A719A799006FCD5324A9179314B4906C8
:1002A000FBD5314A314911600221516020221A7078
:1002B0009A7902F00C020C2AFAD12D4B2D4A1A60C1
:1002C0002D4B2E4A1A6000225A60072243F8042C54
:1002D0002B4AC3F80C2D62B602F062FA134B1B686E
:1002E000DA0705D5274802F09FF9274B274A1A60FD
:1002F000274B1B785B0609D5234C244A236893427D
:1003000004D1204802F090F90023236005F0BAF8E8
:1003100003F0DAF903F0E6F8FEE700BF0E2005402F
:1003200030800440823F04000100002B14D00340C1
:1003300002D0074000E00740388CFF1F7893000090
:100340006087FF1F388CFF1F988FFF1F0082FF1FE1
:100350000000000000E400E05FE400E008ED00E0E1
:100360000050064000400640448004400000030165
:1003700004800440C010050014E000E0FF76010096
:1003800000002020CB038E041CE00340A5C3945A38
:1003900000F00740FFFFFFFFFFFFFFFFFFFFFFFF32
:1003A000FFFFFFFFFFFFFFFFFFFFFFFFFFFFFFFF5D
:1003B000FFFFFFFFFFFFFFFFFFFFFFFFFFFFFFFF4D
:1003C000FFFFFFFFFFFFFFFFFFFFFFFFFFFFFFFF3D
:1003D000FFFFFFFFFFFFFFFFFFFFFFFFFFFFFFFF2D
:1003E000FFFFFFFFFFFFFFFFFFFFFFFFFFFFFFFF1D
:1003F000FFFFFFFFFFFFFFFFFFFFFFFFFFFFFFFF0D
:10040000FFFFFFFFFFFFFFFFFFFFFFFFFEFFFFFFFD
:1004100010B5054C237833B9044B13B10448AFF33E
:1004200000800123237010BD388CFF1F00000000E6
:100430007893000008B5064B1BB106480649AFF398
:1004400000800648036813B1054B03B1984708BD07
:1004500000000000789300003C8CFF1F388CFF1FC9
:100460000000000010B5054C2046002101F0E0FA24
:100470002046002100F00CFB10BD00BF588CFF1F70
:10048000F0B583B02F4C20464FF478411F2201F085
:1004900097FD2D4E002500950195204629462A46B8
:1004A000334601F0BFFE40F6B83002F063F9204653
:1004B0004FF478411F2201F083FD0127009741F698
:1004C000FF130193204629462A46334601F0AAFE2F
:1004D00040F6B83002F04EF920464FF4784101F072
:1004E00083F920464FF4784100F05EF9022300932F
:1004F00011230193204629462A46334601F092FEF5
:1005000040F6B83002F036F920464FF4784101F059
:100510006BF920464FF4784100F046F9204640F24E
:10052000FF7100F043F90323009301972046294609
:100530002A46334601F076FE40F6B83002F01AF94A
:1005400003B0F0BD588CFF1F2C86000000B583B0AF
:10055000074A084B1A600B2300930D2301930648AA
:100560000A210922FF2300F0E3F803B05DF804FB41
:1005700001100138548CFF1F588CFF1F184B1A684C
:1005800042F480521A60174B174A1A60174ADA6011
:1005900002F180421A61164A1A60164B1B7813F05A
:1005A000010F07BF4FF41072134B4FF40072134B3F
:1005B0001A60104B1B7813F0020F4FF400720CBF3F
:1005C0000F4B104B1A600B4B1B7813F0040F07BF37
:1005D0004FF410720C4B4FF400720C4B1A607047C2
:1005E0003C80044000C0024001401F000110003860
:1005F00000001F80AD8DFF1F18B0044008C00440EC
:100600001CB004400CC0044014B0044004C00440BA
:100610000238152818D8DFE800F00B17171719173C
:1006200017190B1717171715171717170D11130F82
:10063000012070470420704704207047082070474D
:100640000820704710207047002070470220704734
:1006500038B50C46FFF7DCFF054650B12046FFF7E2
:10066000D7FF40B1054015F0FF0F14BF0020012057
:1006700038BD002038BD002038BD00BF0238152825
:1006800042D8DFE800F0114141411D4141170B41C3
:100690004141413B41414141232F35294FF40072F3
:1006A0001A4B1A60012070474FF40072184B1A6001
:1006B000012070474FF40072164B1A6002207047F9
:1006C0004FF40072144B1A60022070474FF400720E
:1006D000124B1A60042070474FF40072104B1A60DE
:1006E000042070474FF400720E4B1A6008207047C8
:1006F0004FF400720C4B1A60082070474FF40072E0
:100700000A4B1A60102070470020704710B0044058
:1007100000C004400CB0044010C0044014C00440A9
:1007200008B0044018C0044004B0044000B00440C5
:1007300030B400250571064D0560017542754371A1
:100740009DF8083083749DF80C30C37430BC70473A
:100750004086000010B4437C41EA034141F000436D
:1007600010494B63CB6A13F0F00F18BF8C6B03F486
:100770007043B3F5405FF5D8437C42EA034242F050
:100780000042084B5A631A46D36A13F0F00F18BFA1
:10079000916B03F47043B3F5405FF5D85DF8044BFB
:1007A000704700BF00C0024081877047C187704713
:1007B00000B583B000290BDD002A0BDD009302FB9E
:1007C00001F00A214FF4C052042302F093FE02E02C
:1007D000042000E0042003B05DF804FB10B490F89E
:1007E0002B30012B07D1A1F16103DBB2192B0BD800
:1007F0002039C9B208E0022B06D1A1F14103DBB2D6
:10080000192B9CBF2031C9B2C3691C787CB15B68CD
:100810001A788A420ED0002003E013F8082F8A428B
:1008200009D00130A042F8DB4FF0FF3003E04FF079
:10083000FF3000E000205DF8044B70472DE9F041E7
:100840000746D0F81C8098F8083023B9002A07DC46
:100850000020BDE8F081806900FB02F0BDE8F08176
:100860000C468D18002614F8011B202902D1BB6903
:100870001E4412E00D2910D00A290ED03846FFF789
:10088000ADFF002809DBD8F8043003EBC000436853
:100890001B791E4497F820301E44AC42E3D1304609
:1008A000BDE8F08138B504460D46E1610B7B80F868
:1008B0002B302021FFF792FF002806DB6B6803EB4B
:1008C000C00043681B79A36138BD20460149FFF78A
:1008D000E9FF38BD7087000030B40A4C037C41EA60
:1008E000034343F010436363E36A13F0F00F18BF50
:1008F000A56B03F47043B3F5405FF5D8013AEDD131
:1009000030BC704700C00240837B8B423AD0817379
:10091000437C1B0443F0004343F026031A4A53630D
:10092000D36A13F0F00F18BF916B03F47043B3F563
:10093000405FF5D8837B13F0FF0F12D0437C1B047C
:1009400043F0004343F001030F4A5363D36A13F0AB
:10095000F00F18BF916B03F47043B3F5405FF5D807
:100960007047427C120442F00042074B5A631A4619
:10097000D36A13F0F00F18BF916B03F47043B3F513
:10098000405FF5D8704700BF00C00240F0B4BDF82A
:1009900010509DF8144044B190F83A402CB11C46D8
:1009A0002B4625460C4611462246447C240444F03E
:1009B000004444F01504354E7463F46A14F0F00FEB
:1009C00018BFB76B04F47044B4F5405FF5D8C9B2F2
:1009D000447C41EA044141F000412C4C6163E16AEE
:1009E00011F0F00F18BFA66B01F47041B1F5405F34
:1009F000F5D8DBB2417C43EA014343F0004323498D
:100A00004B63CB6A13F0F00F18BF8C6B03F4704389
:100A1000B3F5405FF5D8437C1B0443F0004343F03B
:100A200075031A494B63CB6A13F0F00F18BF8C6B38
:100A300003F47043B3F5405FF5D8D2B2437C42EA89
:100A4000034242F00042114B5A631A46D36A13F034
:100A5000F00F18BF916B03F47043B3F5405FF5D806
:100A6000EDB2437C45EA034545F00045074B5D6325
:100A70001A46D36A13F0F00F18BF916B03F470435A
:100A8000B3F5405FF5D8F0BC704700BF00C002402E
:100A900010B582B0044601F0030180F8391000233C
:100AA00080F83A30C37B03F0E403C37341B9C37BDE
:100AB00043F01203C3736023C380402303811FE00C
:100AC00001290BD1C37B43F01103C3734023C380BF
:100AD00060230381012380F83A3011E0022904D118
:100AE0006023C380402303810AE0C37B43F00303F8
:100AF000C3734023C38060230381012380F83A300D
:100B000000236381A3814D4B1A684D4B1B78002B4A
:100B100028D072B64A4B1B7813F0010F07D0494B0F
:100B20001868494909680140484801601960444B08
:100B30001B7813F0020F07D0454B186842494968EB
:100B400001404248416019603D4B1B7813F0040F8F
:100B500007D0404B18683C49896801403B48816098
:100B6000196062B63C4BDB68934208D03A4B3B4974
:100B70001960DA6042F080421A61394A1A602389AA
:100B8000E288013B013A92B2009200220192204693
:100B900011469BB2FFF7FAFE637C1B0443F000434F
:100BA00043F0A0032C4A5363D36A13F0F00F18BF2D
:100BB000916B03F47043B3F5405FF5D8E27B264BAD
:100BC0001968607C42EA004242F000625A631A46A9
:100BD000D36A13F0805F04D113F0F00FF8D0936B59
:100BE000F6E71D4B4FF08052DA621960DB6A13F0B2
:100BF000F00F05D0184B9A6BDA6A12F0F00FFAD1A9
:100C00000F4B1B78C3B113F0010F03D00F4B1A68C1
:100C1000144B1A600A4B1B7813F0020F03D00B4BD6
:100C20005A68114B1A60064B1B7813F0040F03D05F
:100C3000064B9A680D4B1A6002B010BDB48CFF1FB2
:100C4000B08CFF1F80E100E0988CFF1FA48CFF1F79
:100C500084E100E088E100E000C0024001401F00A4
:100C600000001F8000E100E004E100E008E100E096
:100C70002DE9F04F8BB005461F46BDF95060BDF819
:100C80005440BDF85880012B00F33781012E41DC20
:100C900089B292B24B1C501C80B20090012001908E
:100CA00028469BB2FFF772FE2A7C44EA024242F0D9
:100CB0001042954B5A63DA6A12F0F00F18BF996B25
:100CC00002F47042B2F5405FF5D81AE1002F40F30C
:100CD000188189B292B24B1E3B44009201200190D0
:100CE00028469BB2FFF752FE874B2A7C44EA024219
:100CF00042F010425A63DA6A12F0F00F18BF996B93
:100D000002F47042B2F5405FF5D8013F3FB2002FC8
:100D1000EBD1F6E0002E40F3F4808BB292B2511E7C
:100D2000314489B20091012101911946FFF72EFE4D
:100D300075482B7C44EA034343F010434363C36A82
:100D400013F0F00F18BF826B03F47043B3F5405FEC
:100D5000F5D8013E36B2002EEBD1D2E089B2B8B25E
:100D6000039092B21FFA86F94B1E0344501E48446A
:100D700080B200900120019028469BB2FFF706FE4A
:100D8000444500F0B380E00A00EB0010C0EB4010D7
:100D90001730C4F3451303EBC31203EB420303F113
:100DA000210104F01F0202EB0212C2EB42121732C1
:100DB0004FEAD82404EB0414C4EB44141734C8F3EA
:100DC000451303EBC31603EB4603213308F01F085A
:100DD00008EB0818C8EB481808F11706B611049676
:100DE0000027C0F387100590C4F387140694C1F35D
:100DF00087110791C3F387130893C2F387120992EF
:100E0000414C384604F076F90646484604F076F937
:100E10000146304604F07AFA06464FF07E503146DD
:100E200004F0B6F88046059804F068F9014640469B
:100E300004F0B8F98246069804F060F9314604F0EF
:100E4000B1F90146504604F0A5F804F0FBFA00F0B1
:100E5000F8004FEA002A079804F050F9014640468E
:100E600004F0A0F98346089804F048F9314604F0EC
:100E700099F90146584604F08DF804F0E3FA00F0C1
:100E8000FC004AEAC00A099804F038F901464046D5
:100E900004F088F98046049BD8B204F02FF931465B
:100EA00004F080F90146404604F074F804F0CAFAF0
:100EB000C0F3C4004AEA000A03992B7C4AEA0343C0
:100EC00043F010436363E36A13F0F00F18BFA26BA3
:100ED00003F47043B3F5405FF5D8013989B20029B6
:100EE000EBD10137BFB2B9458BD10AE02846214684
:100EF00006FB07F2FFF7F0FC03E0012E3FF72EAFF1
:100F0000E4E60BB0BDE8F08F00C00240C81240001C
:100F10001070C1F345121A70490001F03F01009BA7
:100F2000197070472DE9F04F85B006468846914606
:100F30001F46BDF938A0BDF83C40BDF840B0012BBC
:100F400021DCBAF1010F1EDC89B292B24B1C501C9D
:100F500080B200900120019030469BB2FFF716FD51
:100F6000327C44EA024242F01042B34B5A631A46C2
:100F7000D36A13F0F00F18BF916B03F47043B3F50D
:100F8000405FF5D855E196F83A302BB13B465746CD
:100F90009A464346C8469946F3881BB2984580F264
:100FA000488133891BB2994580F2438130463946E6
:100FB00052464FF4C873FFF7FBFB054603AB0093A3
:100FC000304621460DF10A020DF10B03FFF79EFF9B
:100FD0005C450BD00DF10F030093304659460DF1DF
:100FE0000D020DF10E03FFF791FF0BE09DF80A30A3
:100FF0008DF80D309DF80B308DF80E309DF80C30CB
:101000008DF80F3030469DF84410FFF77DFC737C5F
:101010001B0443F0004343F02203874A5363D36A1F
:1010200013F0F00F18BF916B03F47043B3F5405FFA
:10103000F5D85FFA88F2717C42EA014141F0004143
:101040007D4B5963D86A10F0F00F18BF996B00F40C
:101050007040B0F5405FF5D85FFA89F1707C41EAE5
:10106000004040F00040744B5863DC6A14F0F00F0D
:1010700018BF986B04F47044B4F5405FF5D8B844D9
:1010800008F1FF38B8F15F0F12DD737C1B0443F0E9
:10109000004343F05F03684A5363D36A13F0F00FD1
:1010A00018BF906B03F47043B3F5405FF5D814E0BC
:1010B000D319013BDBB2727C43EA024242F00042A8
:1010C0005D4B5A631A46D36A13F0F00F18BF906B4A
:1010D00003F47043B3F5405FF5D8D14409F1FF390B
:1010E000B9F13F0F12DD737C1B0443F0004343F062
:1010F0003F03514A5363D36A13F0F00F18BF916B4B
:1011000003F47043B3F5405FF5D815E001EB0A0333
:10111000013BDBB2727C43EA024242F00042464BA2
:101120005A631A46D36A13F0F00F18BF916B03F499
:101130007043B3F5405FF5D89DF80B409DF80C0067
:10114000727C9DF80A3043EA024242F000423A4B78
:101150005A631A46D36A13F0F00F18BF916B03F469
:101160007043B3F5405FF5D8727C44EA024242F026
:101170000042314B5A631A46D36A13F0F00F18BF7E
:10118000916B03F47043B3F5405FF5D8727C40EA8D
:10119000024242F00042284B5A631A46D36A13F0C7
:1011A000F00F18BF916B03F47043B3F5405FF5D8AF
:1011B0009DF80E409DF80F00727C9DF80D3043EABB
:1011C000024242F000421C4B5A631A46D36A13F0A3
:1011D000F00F18BF916B03F47043B3F5405FF5D87F
:1011E000727C44EA024242F00042134B5A631A46B0
:1011F000D36A13F0F00F18BF916B03F47043B3F58B
:10120000405FF5D8727C40EA024242F000420A4B4D
:101210005A631A46D36A13F0F00F18BF916B03F4A8
:101220007043B3F5405FF5D86D0102D0013D7FF406
:10123000FDAF05B0BDE8F08F00C002402DE9F04FD2
:1012400089B00590884615461F469DF84C909DF83C
:101250005030BDF858200492BDF95410BDF9482013
:1012600001FB03220026B24612B206921BB207937C
:1012700022E05A46634605E012F8011F884207D172
:101280009D4205DD0134E4B201339D42F4DAF0E71A
:1012900070B109FB04F3079A0092049A019202923A
:1012A0000122039205983946069A1BB2FFF73AFECF
:1012B000264409FB04773FB2B54206DD18F8060064
:1012C000544608EB060BB446D3E709B0BDE8F08FEF
:1012D0002DE9F04F93B006AF38620E46FA61BB615C
:1012E000BD6D97F86010396197F86420BA62B7F85D
:1012F0006840B7F870307B62B7F87410396097F8BF
:101300007820FA6005F1080323F00703ADEB030D25
:101310000DF118087B6A8B4215D097F86C302B447E
:10132000396903FB01F3FA6DB96A02FB01F212B2EB
:1013300000923A680192029201220392F969BA6915
:101340001BB2FFF7EFFD002C55D0396905FB01F307
:101350009BB2BB6006F1FF3A013C16FA84F47C6054
:10136000002189460B468B46F9621AF8016FFA682C
:101370000AB1F643F6B20724BA6812B27A6146FAA5
:1013800004F202F0010208F803200133DBB2114439
:10139000AB4229D1002921DDA9420FD1BB6AB9692D
:1013A00003FB091200937B6A019339680291386A42
:1013B000F969D2B27B69FFF75BFC0FE0BA69009272
:1013C0003B690193B96A0291CDF80C907A6A049254
:1013D000386A41462A46FB69FFF730FF09F10109E7
:1013E0005FFA89F95946FB6A013CB4F1FF3FC6D167
:1013F0007A689245B9D13437BD46BDE8F08F00BF59
:10140000F0B58BB004460D2900F067810A292CD174
:10141000C3695A7A90F82930134490F8272003FBC7
:1014200002F3DBB290F83A507DB98189028903FA60
:1014300081F112B2914200F35281002242818289ED
:1014400013FA82F39BB2838181E14189C28803FA56
:1014500081F112B2914200F37A81428913FA82F348
:101460009BB243810025858171E120296ED190F8DE
:101470003A50002D36D190F8207090F826308669C9
:101480003E4406FB03F6F6B2808C628C824223D087
:101490006189E28806FA81F112B2914204DBE688A2
:1014A0006289B61A06F0FF066189A28907FB036309
:1014B00094F827E0D4F81CC09CF809700EFB07F7DD
:1014C0003FB200970190029001200390204609B29C
:1014D00012B21BB2FFF726FD638916FA83F6B6B285
:1014E000668134E190F8205083691D4490F82720EC
:1014F00005FB02F5EDB2838C428C9A421FD08189A4
:10150000028905FA81F112B2914204DB05898289D0
:10151000AD1A05F0FF05A189628994F82660E0699B
:10152000407A06FB00F000B2009001930293012381
:101530000393204609B212B22B46FFF7F3FCA389AE
:1015400015FA83F5ADB2A581002500E1FFF746F954
:101550000028C0F2C680E369C1005A680A44526894
:10156000167994F82A0020B394F83A2082B9678952
:1015700094F82620E08806FB02F505FA87F594F832
:10158000207007FB025200B2824280F2B280D2E0A9
:10159000A78994F82720E08806FB02F505FA87F56D
:1015A00094F8207007FB025200B2824280F2AF80B2
:1015B000C7E094F83A508DB1B4F80CC094F82710F5
:1015C000E08806FB01F707FA8CF794F820C00CFBC3
:1015D000017100B28142C0F2AB80B8E0678994F833
:1015E0002610E08806FB01F505FA87F594F82070CF
:1015F00007FB015100B28142C0F2978073E05A6844
:101600000A4452681168906894F83A20002A2FD151
:10161000B4F80CC05F7A94F82750238905FB07F2D1
:1016200002FA8CF21BB29A425FDC6289A3890096AF
:10163000019794F826700297039580B2049094F86D
:1016400020000590608C0690A08C079000250895DE
:10165000204612B21BB2FFF73BFE628994F820309D
:101660001E4494F8263003FB06239BB263816EE090
:10167000B4F80AC05F7A94F82650E38805FB07F2B5
:1016800002FA8CF21BB29A4231DCA289638900967D
:101690000197029594F82750039580B2049094F82E
:1016A00020000590608C0690A08C0790002508957E
:1016B000204612B21BB2FFF70BFEA38994F8261046
:1016C00094F8270094F8202000FB02F201FB062684
:1016D00016FA83F39BB2A38139E0002537E0012598
:1016E00035E0002533E0012531E001252FE001251B
:1016F0002DE000226281A0895D7A94F829202A4495
:1017000094F8275005FB020292B2A28177E7608924
:101710005D7A94F829202A4494F8265005FB0202A9
:1017200092B262810022A28169E7116890686FE736
:10173000116890689CE75A680A445268116890687A
:1017400066E75A680A4452681168906890E728462C
:101750000BB0F0BD1E4A1168437C1B0443F00063CC
:1017600043F0E3035363D36A13F0805F04D113F0B3
:10177000F00FF8D0936BF6E7154B4FF08052DA621A
:101780001960DB6A13F0F00F05D0114B9A6BDA6A1F
:1017900012F0F00FFAD10F4B1B78C3B113F0010F09
:1017A00003D00D4B1A680D4B1A600A4B1B7813F0CF
:1017B000020F03D0084B5A68094B1A60054B1B787F
:1017C00013F0040F03D0044B9A68064B1A6070475D
:1017D00000C00240B08CFF1FA48CFF1F00E100E09E
:1017E00004E100E008E100E070B584B004460DF1CA
:1017F0000F0300930DF10D020DF10E03FFF786FBB1
:10180000814B1A68814B1B78002B28D072B67F4B16
:101810001B7813F0010F07D07D4B18687D490968CC
:1018200001407D4801601960784B1B7813F0020F6E
:1018300007D07A4B1868774949680140764841607B
:101840001960724B1B7813F0040F07D0744B1868A3
:1018500070498968014070488160196062B6714BB7
:10186000DB68934208D06F4B6F491960DA6042F031
:1018700080421A616D4A1A6020460121FFF744F840
:10188000637C1B0443F0004343F02203654A536327
:10189000D36A13F0F00F18BF916B03F47043B3F5E4
:1018A000405FF5D8627C120442F010425D4B5A63EF
:1018B0001A46D36A13F0F00F18BF916B03F470430C
:1018C000B3F5405FF5D8637C1B0443F0004343F05D
:1018D0005F03544A5363D36A13F0F00F18BF916B40
:1018E00003F47043B3F5405FF5D8637C1B0443F009
:1018F000004343F03F034B4A5363D36A13F0F00FA6
:1019000018BF916B03F47043B3F5405FF5D89DF8B1
:101910000E009DF80F109DF80D60627C46EA0242B1
:1019200042F000423F4B5A631A46D36A13F0F00F5D
:1019300018BF956B03F47043B3F5405FF5D8627C34
:1019400040EA024242F00042364B5A631A46D36ADA
:1019500013F0F00F18BF956B03F47043B3F5405FBD
:10196000F5D8627C41EA024242F000422D4B5A63B4
:101970001A46D36A13F0F00F18BF956B03F4704347
:10198000B3F5405FF5D8637C46EA034646F000466F
:10199000244B5E631A46D36A13F0F00F18BF956BA1
:1019A00003F47043B3F5405FF5D8637C40EA03402D
:1019B00040F000401B4B58631A46D36A13F0F00FF7
:1019C00018BF906B03F47043B3F5405FF5D8637CA8
:1019D00041EA034141F00041124B59631A46D36A70
:1019E00013F0F00F18BF916B03F47043B3F5405F31
:1019F000F5D84FF44853013B7FF4FDAF2046FFF785
:101A0000A9FE04B070BD00BFB48CFF1FB08CFF1FD7
:101A100080E100E0988CFF1FA48CFF1F84E100E0B0
:101A200088E100E000C0024001401F0000001F806C
:101A300030B583B004460023C37380F8383080F893
:101A40003A30837380F82C3043818381012280F8FF
:101A5000272080F8262080F8283080F8293080F868
:101A6000203080F82A208275C27B42F04002C27387
:101A7000C27BD2B2C27383874FF6FF73C38783845E
:101A80004384454B03636FF0590343634FF038427F
:101A9000424B1A60837C0B2B01D0072B59D1E27C7F
:101AA0000D3AD2B2012A54D83D4A12780B2B02D1FA
:101AB00002F0FE0304E0072B40F0678242F00103CE
:101AC0003848006810F4805F16D09A4240F0538284
:101AD00012E04FF4A270344A10604FF41070A2F577
:101AE0007F62106008E04FF4A270304A10604FF43B
:101AF000007002F57F621060294A1370E27C0D2AA3
:101B000002D103F0FB0204E00E2A40F0428243F0CF
:101B100004022448006810F4805F16D0934240F01D
:101B20002F8212E04FF4A270214B18604FF4107016
:101B3000A3F57F63186008E04FF4A2701D4B186096
:101B40004FF4007003F57F631860154B1A7031B9BC
:101B500003E0012384F82C301FE2FEF70FFD207D07
:101B6000617DFEF775FD68B1207DFEF787FD0546B6
:101B70002074607DFEF782FD284360746079FF2841
:101B80001AD131E000232374637494F82C3043F0AD
:101B9000020384F82C3000E20000B443B48CFF1F31
:101BA000AD8DFF1F3C80044008C0044018B00440C5
:101BB00004C0044014B00440012100F069FD6079C4
:101BC000012100F041FD0A2000F0D4FD60790021E0
:101BD00000F03AFD0A2000F0CDFD6079012100F00F
:101BE00033FD0A2000F0C6FDB44B1A68B44B1B78D5
:101BF000002B28D072B6B24B1B7813F0010F07D020
:101C0000B04B1868B04909680140B04801601960DC
:101C1000AB4B1B7813F0020F07D0AD4B1868AA49E5
:101C200049680140A94841601960A54B1B7813F031
:101C3000040F07D0A74B1868A34989680140A3483F
:101C40008160196062B6A44BDB689A4208D0A24B4F
:101C5000A2491960DA6042F080421A61A04A1A6013
:101C6000E37B43F02003E373637C1B0443F00043F6
:101C700043F0AE03984A5363D36A13F0F00F18BFD2
:101C8000916B03F47043B3F5405FF5D820462621ED
:101C90000122FEF75FFD2046A1210022FEF75AFD3A
:101CA0002046A2210022FEF755FD2046A8213F2212
:101CB000FEF750FD2046AD218E22FEF74BFD20465B
:101CC000B0210B22FEF746FD2046B1213122FEF75E
:101CD00041FD2046B321F022FEF73CFD20468A213B
:101CE0006422FEF737FD20468B217822FEF732FD75
:101CF00020468C216422FEF72DFD2046BB213A228E
:101D0000FEF728FD2046BE213E22FEF723FD204699
:101D100087210622FEF71EFD204681219122FEF733
:101D200019FD204682215022FEF714FD2046832112
:101D30007D22FEF70FFD637C1B0443F0004343F05C
:101D4000AB03654A5363D36A13F0F00F18BF916B6E
:101D500003F47043B3F5405FF5D8627C120442F09F
:101D600000425D4B5A631A46D36A13F0F00F18BF56
:101D7000916B03F47043B3F5405FF5D8637C1B04AB
:101D800043F0004343F08003534A5363D36A13F094
:101D9000F00F18BF916B03F47043B3F5405FF5D8B3
:101DA000637C1B0443F0004343F080034A4A5363BF
:101DB000D36A13F0F00F18BF916B03F47043B3F5BF
:101DC000405FF5D8637C1B0443F0004343F080037D
:101DD000414A5363D36A13F0F00F18BF916B03F4B9
:101DE0007043B3F5405FF5D8637C1B0443F00043B8
:101DF00043F00F03384A5363D36A13F0F00F18BF50
:101E0000916B03F47043B3F5405FF5D8637C1B041A
:101E100043F0004343F0B8032F4A5363D36A13F0EF
:101E2000F00F18BF916B03F47043B3F5405FF5D822
:101E30002C4D681E1F35284A10F8013F617C43EA8B
:101E4000014343F000435363D36A13F0F00F18BF0C
:101E5000916B03F47043B3F5405FF5D8A842EBD122
:101E60003F23009300220192204611465F23FEF794
:101E70008DFD2046A18F6022FEF72EFD637C1B04A2
:101E800043F0004343F0A403134A5363D36A13F0AF
:101E9000F00F18BF916B03F47043B3F5405FF5D8B2
:101EA00020460121FEF730FD0B4A1168637C1B04BC
:101EB00043F0006343F0AF03536315E0B48CFF1F9E
:101EC000B08CFF1F80E100E0988CFF1FA48CFF1FE7
:101ED00084E100E088E100E000C0024001401F0012
:101EE00000001F8048860000D36A13F0805F04D191
:101EF00013F0F00FF8D0936BF6E7294B4FF08052B8
:101F0000DA621960DB6A13F0F00F05D0244B9A6B8C
:101F1000DA6A12F0F00FFAD1224B1B78C3B113F03A
:101F2000010F03D0204B1A68204B1A601D4B1B7801
:101F300013F0020F03D01C4B5A681D4B1A60194B4B
:101F40001B7813F0040F03D0174B9A68194B1A60D3
:101F50003C2000F00FFC20460021FEF799FD2046B2
:101F6000A18FFFF741FC20461349FEF79BFC01209F
:101F700000F000FC11E013F0010F3FF4AAADB2E550
:101F800012F0040F3FF4CEADD6E50C4B1B681346A0
:101F9000B2E50A4A12681A46D7E503B030BD00BF61
:101FA00000C00240B08CFF1FA48CFF1F00E100E0C6
:101FB00004E100E008E100E0708700003C8004409C
:101FC00070B586B004468D4B18688D4B1B78002B7E
:101FD00028D072B68A4B1B7813F0010F07D0894BBB
:101FE0001E68894D2D683540884E35601D60844BD4
:101FF0001B7813F0020F07D0854B1E68824D6D6869
:102000003540824E75601D607D4B1B7813F0040FC8
:1020100007D0804B1E687C4DAD6835407B4EB56067
:102020001D6062B67C4BDB68834208D07A4B7B4DE7
:102030001D60D86040F08040186179481860914276
:102040000AD04023009301910292204600210A46C3
:102050006023FEF70DFECBE00DF117030093204641
:102060000DF115020DF11603FEF750FF2046012178
:10207000FEF74AFC637C1B0443F0004343F0220359
:10208000654A5363D36A13F0F00F18BF916B03F4E2
:102090007043B3F5405FF5D8627C120442F0104201
:1020A0005D4B5A631A46D36A13F0F00F18BF916B59
:1020B00003F47043B3F5405FF5D8637C1B0443F031
:1020C000004343F05F03544A5363D36A13F0F00FA5
:1020D00018BF916B03F47043B3F5405FF5D8637C90
:1020E0001B0443F0004343F03F034B4A5363D36A5E
:1020F00013F0F00F18BF916B03F47043B3F5405F1A
:10210000F5D89DF816009DF817109DF81560627CB3
:1021100046EA024242F000423F4B5A631A46D36AF3
:1021200013F0F00F18BF956B03F47043B3F5405FE5
:10213000F5D8627C40EA024242F00042364B5A63D4
:102140001A46D36A13F0F00F18BF956B03F470436F
:10215000B3F5405FF5D8627C41EA024242F00042AA
:102160002D4B5A631A46D36A13F0F00F18BF956BC4
:1021700003F47043B3F5405FF5D8637C46EA034649
:1021800046F00046244B5E631A46D36A13F0F00F04
:1021900018BF956B03F47043B3F5405FF5D8637CCB
:1021A00040EA034040F000401B4B58631A46D36A94
:1021B00013F0F00F18BF906B03F47043B3F5405F5A
:1021C000F5D8637C41EA034141F00041124B596369
:1021D0001A46D36A13F0F00F18BF916B03F47043E3
:1021E000B3F5405FF5D84FF44853013B7FF4FDAFA2
:1021F0002046FFF7AFFA06B070BD00BFB48CFF1FDA
:10220000B08CFF1F80E100E0988CFF1FA48CFF1FA3
:1022100084E100E088E100E000C0024001401F00CE
:1022200000001F802DE9F04F8BB007469DF85080CD
:10223000BDF854A0D3F800905879DD881B79013B94
:1022400013F0FF0300F0D680013810F0FF0000F01B
:10225000D18097F83A401CB904461846234602E05C
:102260000C4611462246FC880E1824B2A64280F283
:10227000C1803C89D61824B2A64280F2BB805F4C54
:1022800026685F4C2478002C3DD072B65C4C2478D4
:1022900014F0010F0ED05B4CD4F800C0DFF878E1E9
:1022A000DEF800E00CEA0E0EDFF870C1CCF800E0BA
:1022B000C4F800E0524C247814F0020F0ED0524CB7
:1022C000D4F800C0DFF850E1DEF804E00CEA0E0EAE
:1022D000DFF848C1CCF804E0C4F800E0484C2478AA
:1022E00014F0040F0ED0494CD4F800C0DFF828E1F8
:1022F000DEF808E00CEA0E0EDFF820C1CCF808E0AA
:10230000C4F800E062B6424CE468B4420AD0404CE3
:10231000DFF80CE1C4F800E0E66046F08046266194
:102320003C4E2660039089B20491084480B2079025
:1023300092B2059213449BB2089300930024019437
:102340003846079BFEF722FB013DADB201350995EA
:1023500025462646A3462E4CCDF818A0DDF824A02D
:10236000ABB239F81330B8F1010F03D106998B42A3
:1023700021D90FE0B8F1020F04D1069A934209D88F
:10238000BB8F07E0B8F1030F04D106998B4294BFCD
:10239000BB8FFB8F3A7C43EA024343F010436363F5
:1023A000E36A13F0F00F18BFA26B03F47043B3F5A8
:1023B000405FF5D80DE004993144059A5A44089BD2
:1023C000009300230193384689B292B2079BFEF72F
:1023D000DDFA03998E4205D10BF1010B5FFA8BFBFD
:1023E000002601E00136B6B201355545B8D1384670
:1023F000FFF7B0F90BB0BDE8F08F00BFB48CFF1F42
:10240000B08CFF1F80E100E084E100E088E100E0A3
:1024100000C0024000001F80988CFF1FA48CFF1F8B
:1024200001401F00F8B505460F46164632B908466A
:1024300003F050F886B2002E00F0C28095F82840D4
:10244000002C72D0284639463246FEF7F7F995F847
:10245000263003FB00F000EBD070C0F34700EA69C0
:10246000517A937ACB1A95F8272002FB03F303EBFA
:10247000D373C3F34703032C2CD895F83A20A2B1A9
:10248000012C07D92A8912B202EBD272C3EB620384
:102490009BB26B81022C39D0EB881BB203EBD37358
:1024A000C0EB63039BB2AB8130E0012C07D92A89D2
:1024B00012B202EBD272C3EB62039BB2AB81022C6D
:1024C00024D0EB881BB203EBD373C0EB63039BB246
:1024D0006B811BE095F83A2062B1042C03D96A891C
:1024E000D31A9BB26B81052C10D0AB891B1A9BB2FF
:1024F000AB810BE0042C03D9AA89D31A9BB2AB8120
:10250000052C03D06B891B1A9BB26B816B891BB2A4
:10251000002BBCBF00236B81AB891BB2002BBCBF5F
:102520000023AB81002385F82830264B1A68264B00
:102530001B78002B28D072B6234B1B7813F0010FA9
:1025400007D0224B186822490968014021480160E0
:1025500019601D4B1B7813F0020F07D01E4B186833
:102560001B49496801401B4841601960164B1B78A4
:1025700013F0040F07D0194B1868154989680140FA
:1025800014488160196062B6154BDB68934201D133
:10259000002409E0124B13491960DA6042F08042CE
:1025A0001A61114A1A60F3E72846395DFEF728FFE1
:1025B00018B90134A3B29E42F6D82846FFF7CAF8EC
:1025C000F8BD00BFB48CFF1FB08CFF1F80E100E09E
:1025D000988CFF1FA48CFF1F84E100E088E100E0DD
:1025E00000C0024001401F0000001F8000B583B002
:1025F00002AB03F8011D19460122FFF713FF01206A
:1026000003B05DF804FB00BF10B5144692B2FFF7AB
:1026100009FF204610BD00BF014A024B1A607047F7
:1026200001100138B48CFF1F044B00221A600449CA
:102630000A60044A106010221A60704714D00340E8
:1026400004D0034000D0034021281ED80F4B53F87C
:10265000303093F8802212F0FF0F08D019B1012218
:1026600083F880207047012283F800217047074BD0
:1026700003EBC000436821B11A6842F003021A60FC
:1026800070471A6822F002021A60704790900000AA
:1026900021284AD8254B03EBC0035B68012911D0E0
:1026A00004291DD0214A52F83020002082F88002EF
:1026B00000292FD0022931D003291FD040F2031264
:1026C0001A607047194A52F83020012182F88012AE
:1026D0004FF4A2721A601A6822F020021A60704742
:1026E000124A52F83020012182F880124FF4A2726F
:1026F0001A601A6842F020021A6070474FF4807224
:102700001A601A6842F002021A601A6822F0010286
:102710001A6070474FF480721A6070474FF48072ED
:102720001A601A6842F003021A6070479090000025
:1027300072B60C4B1B680C4A12680C49096862B6E9
:1027400011F0806F02D0322B88BF0132C3F5BB334A
:10275000FF330749A1FB03039B094FF47A7000FB89
:102760000230704718E000E0B88CFF1F04ED00E075
:10277000ABAAAAAA38B50546FFF7DAFF044625B981
:1027800038BD013D0AD004F57A74FFF7D1FF001B74
:10279000B0F57A7FF5D200F0BBFEF6E738BD00BF9A
:1027A00010B5254B4FF400021A604FF080721A608A
:1027B0004FF000721A604FF080621A604FF00062B2
:1027C0001A6000201D4B18604BF6FF71043319602E
:1027D00028231B4A13600832136008321360083242
:1027E0001360083213600832136008321360083235
:1027F00013600922134C226004F5805404342060D5
:10280000043421600434236008342360143C2260C3
:1028100004F5FE24043420600B4801600B490B6072
:1028200008310B600A4B1A6000F094FEFA20FFF7A3
:10283000A1FF00F073FC10BD08E100E0048003403C
:102840000C8003400080034008800B400C800B404C
:1028500000800B4030B40E4B1B7843F002020D4C4D
:1028600004EBC20460600C48007800280CBF882488
:10287000C82444EA0141074D45F8321080F00100B8
:10288000054A107083F00103014A137030BC704791
:10289000248DFF1F0080FF1F9D8DFF1F10B4431E5E
:1028A000032B11D872B60A4A52F8230050B142687D
:1028B000074941F82320074A32F813400188611A7A
:1028C00022F8131062B600E000205DF8044B704758
:1028D000148DFF1F848FFF1F013803280DD872B697
:1028E000074B53F820302BB1002001305B68002BE0
:1028F000FBD100E0002062B670470020704700BFA7
:10290000688DFF1F38B572B601231B491B4C5A183E
:1029100012F8012C12F0080F24D09A0054F832500B
:102920006DB9164B03EBC20108304860144943F8F7
:102930003210144B1A78013A1A7062B638BD42F060
:10294000010254F832506DB90C4B03EBC201083050
:1029500048600D4943F832100A4B1A78013A1A7050
:1029600062B638BD0133052BD1D162B60022054BCA
:102970001A7000F037FC38BDA09100000080FF1FE6
:1029800088004000928DFF1FC800400010B4431E15
:10299000032B37D8400140F010001C4A104472B697
:1029A0001B4AD25C032A09D8DFE802F019021B0592
:1029B0000830022216E00830042213E0154A52F8CB
:1029C00023201AB9134A42F8231003E0124A52F89E
:1029D00023205160104A42F8231062B612E003220D
:1029E00000E005220A4CE25401F10803436000F0C4
:1029F0000803002B0CBF8823C8230A8843EA02433C
:102A0000036062B65DF8044B704700BF0080FF1F93
:102A1000D08CFF1F688DFF1F788DFF1F2DE9F84FA9
:102A2000A34CDFF8E092DFF8E0A2DFF8E0B225780F
:102A3000EDB215F0040F1DD09E4B1B7813F0FF0F65
:102A400016D09D4B1B7803F0FF022BB1531EDBB257
:102A5000994A137003B900BE984B1B7803F0FF022C
:102A600033B1531EDBB2954A13700BB900F016FD5B
:102A70000423237015F0080F00F0E48299F8003069
:102A8000DBB21D0940F021828D4D9E0805EBC60387
:102A90005A6855F83630C3F38303013B0C2B00F220
:102AA0001082DFE813F0CB01CB010E020E020E0202
:102AB0000E020E020E02E8010E020E020E020D00C0
:102AC000804913680B6052684A607F4A45F8362097
:102AD00000227E490A607A490A618A6101217C4AA2
:102AE00011709BB240F28162934218D8B3F5D06F57
:102AF0002ED2B3F5817F00F01E8106D8802B00F026
:102B0000C980822B00F0CC8066E140F20232934211
:102B100000F02681B3F5A06F00F062815CE142F223
:102B20002102934200F0868107D8B3F5086F00F0C8
:102B3000AB80B3F5106F11D04EE142F221229342E7
:102B400000F0418142F22132934200F0498143E199
:102B5000604B5D68002D40F0188130E1594B9A7848
:102B6000544B1A70564D05F180062B6A13F0800FF6
:102B700003D0686A083800F035FB0835B542F4D157
:102B8000DFF88C8100263746534AB05828B1456893
:102B900000F028FB0DB12846F9E700234E49735099
:102BA0004E4AB3504E4BF05828B1456800F01AFB1E
:102BB0000DB12846F9E7002349497350494AB350FB
:102BC00028F8023F484BFB5C023B032B0AD8DFE8A6
:102BD00003F0020602060022434BDA5502E001220E
:102BE000414BDA5501370436102ECDD100223F4B30
:102BF0001A7001253E4EDFF81C81314F05EB0803AA
:102C000013F8013C06F8043B13F0080F2DD000F038
:102C1000C9FA48B1A90007EB451200F10803536057
:102C2000344A47F8312007E0AB00002247F8332050
:102C30002E4B1A7801321A7000F0B4FA58B1AB007A
:102C400043F0010307EBC30100F108024A601E4A8A
:102C500047F8332009E0AB0043F00103002247F8B6
:102C60003320224B1A7801321A70AA0042F0020176
:102C7000002347F8313042F0030247F83230013583
:102C80001D4B9E42BAD11EE20A4B1B781B4D2B7086
:102C90000127AAE0194D00232B706B700227A4E0D6
:102CA000084B9B88042B37D90F22154B1A70C1E0B3
:102CB000802007409C8DFF1F258DFF1F9E8DFF1FCD
:102CC0000080FF1F888DFF1FC8004000BC8CFF1FC5
:102CD0009D8DFF1FA4910000148DFF1FC08CFF1F4E
:102CE000688DFF1F788DFF1FD08CFF1F928DFF1FF7
:102CF000C420074088004000D4200740948DFF1F67
:102D0000C0200740902007409420074098200740AB
:102D1000828FFF1FA0910000A04A00211170517006
:102D20009F4A12F8233013F0020F5CD09B4D012311
:102D30002B70022759E09B4B9B8803F07F03042BE9
:102D400002DC984A52881AB10F22954B1A7071E032
:102D5000934A12F8231021F0020102F82310B2E185
:102D6000904B9B8803F07F03042B02DC8D4A528832
:102D70001AB10F228A4B1A705CE0894A12F82310AC
:102D800041F0020102F823109DE1864B5E889F8886
:102D9000854BA3F10C02114633F80C0CB04209D15B
:102DA00033F80A0CB84205D1360A032E0CBF2F782F
:102DB00017891AE00D690C330C32002DEBD10F226C
:102DC000774B1A7036E0794B1A68794B1A60754B5D
:102DD0009A78784B1A7076E10F22714B1A7029E0BD
:102DE00000273D4601E002276C4D6E4BDB889F4279
:102DF00028BF1F46402F34BF3E4640262846314656
:102E0000FFF728FD3544BF1B03D13F2E00F2608140
:102E100010E0402F34BF3E46402628463146FFF79B
:102E200019FD3544BF1B01D13F2E03D9624B1D60F4
:102E3000624B1F8001238AF8003042E0594B198809
:102E400042F22103994212D15D4BD81D12F8011BA9
:102E500003F8011F8342F9D15A4B1B68862B02D11C
:102E60000F22594B1A7000200146FFF7F3FC574B15
:102E700045F8363025E0504B1E68BEB14F4FB7F8CD
:102E80000080B8F1400F34BF454640253046294602
:102E9000FFF7E0FCC5EB08039BB23B800BB9402D6C
:102EA00001D1354400E00025434B1D603D4B1B889C
:102EB000B3F5A06F05D13B4B00225A709B788BF87D
:102EC000003001238AF80030B9E0414E9F0806EB3C
:102ED000C708D8F80420A2F10800013DEDB213F0B4
:102EE000080F47D000F07EF93A4B53F825304BB32A
:102EF0005A68384941F8252003F10802C8F804202F
:102F0000354A525D032A12D8DFE802F002060A0EA3
:102F10000321314A51550AE002212F4A515506E05A
:102F200005212D4A515502E004212B4A515518F034
:102F3000080F0CBF8822C8221B8842EA034346F8C8
:102F400037307CE0244B5B5D032B0BD8DFE803F0CC
:102F5000777702060022204B5A5570E001221E4B63
:102F60005A556CE018F0080F0CBF022203221A4BCE
:102F70005A5564E056F837301B0C22F8083C002BF9
:102F800055D0002322F8063C42F8043C134B53F87A
:102F900025302BBB114B43F8250025E0948DFF1FF6
:102FA000C0200740888DFF1FB0910000B88CFF1F24
:102FB000948FFF1FAC8DFF1FBC8CFF1F908DFF1FD8
:102FC0008B8FFF1F8C8FFF1F258DFF1FC8004000B8
:102FD0000080FF1F688DFF1FD08CFF1F148DFF1F07
:102FE0003F4B53F8253058603D4B43F825003D4B8F
:102FF00033F8151032F8082C0A4423F8152000F095
:10300000D1F860B100F10803C8F8043018F0080FD7
:10301000354B364A08BF134646F837300FE00023D9
:1030200046F83730324B1A7801321A7007E018F040
:10303000080F2D4B2D4A08BF134646F8373008239A
:103040002370F4E415F0010F22D02A4902230B70FB
:103050000022294B1A70294B24481860284C5C60C8
:1030600098602848D8601A619A610D20264B187024
:10307000FF23264803700838037018300270244A72
:1030800013709F22234B1A7001230B70BDE8F88F39
:1030900015F0800F05D00D221B4B1A708022403B8B
:1030A0001A7015F0020F06D0184B1A78D2B21A70A7
:1030B0000222083B1A7015F0100F0ED01022164B8A
:1030C0001A70BDE8F88F00200146FFF7C3FBB1E698
:1030D00028460021FFF7BEFBACE6BDE8F88F00BF35
:1030E000C08CFF1F848FFF1FC80040008800400075
:1030F000928DFF1F94200740248DFF1F0080FF1F2B
:10310000D48CFF1F288DFF1FC02007408820074058
:103110008C200740842007408020074008B501F03C
:10312000B7FC00231B491A465A50C818426008339E
:10313000882BF9D1184B1A6842F480221A60154B7B
:10314000C3F30721154A1170C3F3074114321170FC
:103150001B0E04321370FF23343A137008321370BD
:10316000783A137001238432137000216C3211708D
:103170007C3A137070220A4B1A704FF40072A3F25B
:1031800041331A60102203F1C04303F5C8231A70BB
:1031900008BD00BF0080FF1F348004409C20074012
:1031A00049E400E072B60D4B1A68B2FA82F30B2BB9
:1031B00002D962B6002070474FF00041D94022EAA0
:1031C000010206490A6062B6054903EBC303DB004E
:1031D000C8180022CA504260704700BF6087FF1FB6
:1031E0000084FF1F08B50F4BC31A0F4AA2FB03133D
:1031F0001B090B2B14D80D4A12783AB10C4A1278DD
:1032000012F0FF0F02D0FFF77DFB08BD72B6094A2E
:103210004FF0004121FA03F311681943116062B6BF
:1032200008BD00BF0084FF1F398EE338928DFF1F59
:103230009C8DFF1F6087FF1F10B5134B1B6853B990
:10324000124B1B7813F0FF0F18D00320FFF726FB5B
:103250000D4B1860A8B10C4B186843885A1C0344E6
:103260001C7A03889A4206D3FFF7BCFF0022064B64
:103270001A60204610BD4280204610BD4FF0FF303E
:1032800010BD4FF0FF3010BDA88DFF1F9C8DFF1F9C
:1032900008B50D4B1B6883B90C4B1B7813F0FF0F5F
:1032A00008D00320FFF7FAFA074B186028B94FF04F
:1032B000FF3008BD4FF0FF3008BD034B1B685A8834
:1032C0001344187A08BD00BFA88DFF1F9C8DFF1FF7
:1032D000044B9888044B1B681BB11A885B88D31A6F
:1032E00018447047848FFF1FA88DFF1F10B50B4B2C
:1032F0001B7813F0FF0F0FD0094B186820B1FFF7B0
:1033000071FF0022064B1A6003242046FFF7C6FA1D
:1033100010B1FFF767FFF8E710BD00BF9C8DFF1FDE
:10332000A88DFF1F2DE9F04704460122374B1A7084
:103330000E46002964D0DFF8E080DFF8E0909A467E
:10334000334FD8F8003083BB99F8003013F0FF0FEB
:1033500006D100222D4B1A704FF0FF30BDE8F087E8
:103360004AF2F9250420FFF7B7FA07280AD8012303
:103370008AF80030FFF716FFC8F80000A8B900234C
:103380008AF80030013D01D03B7833B10122204B57
:103390001A704FF0FF30BDE8F08700F0B9F899F8E7
:1033A000003013F0FF0FDDD1D3E700233B70D8F8D6
:1033B00000104A88C2F14005AE4238BF354602F1DE
:1033C00008030B442A444A80761B3DB1254414F877
:1033D000012B03F8012BAC42F9D100E025464B88C4
:1033E0003F2B07D940230B800420FFF7CFFA00239F
:1033F000C8F800300522074B1A700EB12C46A0E722
:103400000020024B1870BDE8F08700BF9F8DFF1FA2
:10341000A48DFF1F9E8DFF1FA08DFF1F9C8DFF1F82
:1034200000B583B002AB03F8010D18460121FFF788
:1034300079FF03B05DF804FB10B5144B1B7813F053
:10344000FF0F21D00122124B1A70124B196851B193
:103450000024114B1C704B880B800420FFF796FA58
:103460000C4B1C600DE0FFF79DFE014630B10022C1
:10347000094B1A700420FFF789FA02E00122064B7B
:103480001A700022024B1A7010BD00BF9C8DFF1FE6
:103490009F8DFF1FA08DFF1F9E8DFF1F08B50E4B38
:1034A0001B7813F0FF0F16D10C4B196841B14B88F4
:1034B0000B800420FFF76AFA0022084B1A6008BD4F
:1034C000FFF770FE014618B10420FFF75FFA08BD50
:1034D0000122034B1A7008BD9F8DFF1FA08DFF1F97
:1034E0009E8DFF1F08B5FCF7BDFFFCF7C9FF00F07C
:1034F0000FF8FAE710B4401A019CE41A04FB00F438
:10350000521A94FBF2F018445DF8044B704700BF68
:1035100008B50F4B1B78CBB901220D4B1A70FFF782
:10352000D7FE08B101F0FEFC00F06AFB08B101F023
:1035300085FB00F0F1FE08B101F022FC01F0BEF9BC
:1035400008B101F0BFFC0022014B1A7008BD00BF9A
:10355000AE8DFF1F60223A4B1A70E12201331A70C0
:10356000384B1B78082B10D1012203F1804303F55F
:103570006C331A60132334490B6001F5FF2101F20B
:10358000FC710A60314A13601FE00A2B0DD1392209
:103590002F4B1A6013232C490B6001F5FF2101F218
:1035A000FC710A60294A13600FE00C2B0CBF352216
:1035B0003D22274B1A60122323490B6001F5FF219E
:1035C00001F2FC710A60214A1360224B1B7833B16F
:1035D0000123214A136002F50022136005E0002355
:1035E0001D4A136002F5002213601C4B1B78012B4F
:1035F00006D880231A4A136002F5002213601AE0ED
:10360000042B06D88423164A136002F500221360A7
:1036100011E0082B06D88523114A136002F5002219
:10362000136008E0102B94BF862387230C4A136095
:1036300002F50022136001220A4B1A70704700BF86
:10364000004007406487FF1F0CB003400CB00B40E4
:1036500008B00340B08DFF1F20B003406587FF1FF7
:1036600024B00340AF8DFF1F024B1A6801321A606D
:10367000704700BFB88CFF1F08B50D4C236813F4CA
:10368000802F01D0FFF7CAF9236813F4806F01D0AF
:1036900000F040FB236813F4006F01D000F0C6FE79
:1036A000236813F4805FE9D001F07EF9E6E700BFFC
:1036B0003480044008B5FFF7DFFF00BF1022014B44
:1036C0001A80704700200540704700BFEFF3138356
:1036D000ABB9EFF31083ABB9EFF3058323B10F2B35
:1036E00005D9094A985C03E04FF4807000E000209F
:1036F000EFF311833BB1834238BF184670474FF058
:10370000FF30704700207047F0E300E0254B1A6857
:1037100042F480621A600023234A1370234A137014
:10372000234A1370234A1370234A1370234B1B78C8
:1037300013B1152B05D008E040F21332204B1A606C
:1037400003E040F213321F4B1A601F4B1B78012B12
:1037500002D0052B05D008E04FF451721B4B1A60C4
:1037600003E04FF451721A4B1A60C0F34432194B04
:103770001A70C0F347125A7000F01F0098720422AA
:103780009A700221D9745A7588221A743C22DA7010
:103790004022114B1A704FF40052A3F229331A60E1
:1037A000704700BF34800440408EFF1FB98DFF1F5B
:1037B000488EFF1F418EFF1FB88DFF1FFC8DFF1F1E
:1037C00040A0044018C004406687FF1F44A0044086
:1037D0001CC0044000A006402DE400E0164B9B787E
:1037E00003F0EC0300F00302134310F0040F18BFC2
:1037F00043F01003104A937000F00F03042B04D120
:103800001346927942F040029A710B4B5A7902F0BA
:10381000EF0210F0100F18BF42F01002064B5A7161
:103820009B7903F0EF0310F0200F18BF43F0100353
:10383000014A9371704700BF00A0064010B5144BB9
:103840001B6813F4806F21D0124B1B7813F0FF0F0D
:1038500006D0104CFFF75CFE237813F0FF0FF9D170
:103860004FF400520C4B1A6000230C4AD37040F204
:1038700003120B490A6004310A600A4A13700A4AAB
:1038800013700A4B1B680BB101221A7010BD00BFE8
:1038900034800440B88DFF1F84E100E000A00640A2
:1038A00040A00440408EFF1FB98DFF1FB48DFF1F45
:1038B00010B50446094A137813F0FF0FFBD12046D8
:1038C0000121FEF7E5FE20460021FEF7BDFE044B78
:1038D00053F83420034B1A6010BD00BFB88DFF1F92
:1038E00090900000448EFF1F10B40C4609B140F0C8
:1038F0008000184B1B78984228D0174A126812F49F
:10390000806F21D003F07F03012B02D0052B04D060
:1039100006E00022114B1A6002E00022104B1A60F0
:10392000002C0CBF4422602200F07F03012B02D048
:10393000052B05D008E042F44072084B1A6003E002
:1039400042F44072064B1A60024B18705DF8044B4B
:10395000704700BF6687FF1F3480044044A00440C6
:103960001CC00440114B1B7898421ED0104A1268AC
:1039700012F4806F17D013B1152B04D006E000228B
:103980000C4B1A6002E000220B4B1A6010B1152894
:1039900005D008E040F21332064B1A6003E040F213
:1039A0001332054B1A60014B18707047FC8DFF1FD6
:1039B0003480044040A0044018C0044010B50D4BB2
:1039C0001B6813F4806F12D021280CD80A4C0B4BC3
:1039D00053F8303023600121FEF75AFE236800229D
:1039E0001A70012010BD0020034B186010BD00208C
:1039F00010BD00BF34800440B48DFF1F90900000C4
:103A0000114B1B6813F4806F1BD0122804D140F2B5
:103A100002320E4B1A600DE0142804D140F202323B
:103A20000B4B1A6006E00B4B5A7B02F0FE025A73F6
:103A300000207047074B5A7B42F001025A73012065
:103A400070470020704700BF348004400CA0044041
:103A500014C0044000A006402DE9F04107461F4B6A
:103A60001B6813F4806F37D01D4B1B680BB101220C
:103A70001A701C4B1C780134402C28BF00241A4DAE
:103A80001A4EDFF86C8017E0FFF720FE40280FDCAD
:103A9000337913F0800F0FD02B780133402B28BFE0
:103AA000002318F80320D2B2F271DBB22B7003E0CE
:103AB000FF2801DDFFF72CFD2B78DBB29C42E3D021
:103AC000FFB20B4B1F5501220A4B1A70E4B2054B93
:103AD0001C70BC22054BDA70BDE8F08134800440D4
:103AE000448EFF1F488EFF1F418EFF1F00A006401F
:103AF000BC8DFF1FB88DFF1F2DE9F84F0746284BDF
:103B00001B6813F4806F49D0264B1B680BB1012250
:103B10001A7007EB010B5F453DD2DFF89890224EFB
:103B2000DFF88C80DFF890A099F800400134402C39
:103B300028BF00243578EDB2A54220D1BC2388F8F7
:103B40000330FFF7C3FD402811DC98F8043013F070
:103B5000800F10D033780133402B28BF00231AF890
:103B60000320D2B288F80720DBB2337003E0FF28CD
:103B700001DDFFF7CDFC3378DBB29D42E1D017F8D1
:103B8000013B0AF804300122084B1A70E4B289F8AC
:103B900000405F45C8D1BC22054BDA70BDE8F88F04
:103BA00034800440448EFF1F418EFF1FB88DFF1FDD
:103BB00000A00640488EFF1FBC8DFF1F10B5064BAE
:103BC0001B7813F0FF0F06D0034CFFF7A1FC2378FE
:103BD00013F0FF0FF9D110BDB88DFF1F064B1B78F6
:103BE000DBB2064A1278D2B293422CBF3F3202F1C6
:103BF000FF32D01A704700BF488EFF1F418EFF1F53
:103C0000054B1878C0B2054B1B78DBB2984238BF21
:103C10004030C01A704700BF408EFF1FB98DFF1F94
:103C200010B4184B1A78D2B2174B1B78DBB29A42F9
:103C300018D001333F2B18D81449C85CC0B2DCB28D
:103C400011490C7012490968C9B19A4203D300E0C6
:103C50000023D31A01E04032D31A1A2B0FDC0023C1
:103C60000B700CE04FF0FF3009E0084B1878C0B241
:103C70000021054B1970064B19680029E8D15DF841
:103C8000044B7047408EFF1FB98DFF1F008EFF1F32
:103C9000B48DFF1F094B1A78D2B2094B1B78DBB2E7
:103CA0009A4207D00133402B28BF0023054AD05C3D
:103CB000C0B270474FF0FF30704700BF408EFF1F0B
:103CC000B98DFF1F008EFF1F0D4B1B6813F4806F13
:103CD00014D00C4BDA7802F0CB02DA7040225A741E
:103CE000DA7842F03402DA70074B1A78D2B2074B16
:103CF0001A70074B1B680BB100221A70704700BF87
:103D00003480044000A00640B98DFF1F408EFF1F85
:103D1000B48DFF1F70B43D4B1B7913F0300F33D0BF
:103D200072B63A4B9B7D03F0FF022BB9374BDA7921
:103D300040225A7462B627E062B6354B1978C9B290
:103D4000344B1C78E4B2314D334EEB79D8B24B1C76
:103D5000402B28BF0023A3421CBFF0541946531E1A
:103D600013F0FF02F1D1CAB2294B1A702B4B1B681A
:103D700053B1A1422EBFC4EB0101C4F140040919A3
:103D80002729C4BF01221A70204BDA78D2B212F070
:103D9000800F27D01B7913F0800F23D0204B1C7885
:103DA000E4B2204B1B78DBB29C4210D017491E4D69
:103DB00001E0A3420BD00133402B28BF0023087938
:103DC000E85CC0B2C871087DC0B20728F1D9DBB287
:103DD00014490B700D4B1B7913F0800F02D07C211E
:103DE0000A4BD97012F0400F0ED0084B1B7913F01C
:103DF000400F09D000220D4B1A700D4B1B6803B108
:103E00001A703C22014BDA7070BC704700A006406B
:103E1000408EFF1FB98DFF1F008EFF1FB48DFF1F47
:103E2000488EFF1F418EFF1FBC8DFF1FB88DFF1FE7
:103E3000448EFF1F254B1A6842F400621A6000236B
:103E4000234A1370234A1370234A1370234A1370B2
:103E5000234A1370234B1B78092B02D01A2B05D051
:103E600008E040F21332204B1A6003E040F21332B4
:103E70001E4B1A601E4B1B780A2B02D01F2B05D03D
:103E800008E04FF451721B4B1A6003E04FF451727B
:103E9000194B1A60C0F34432184B1A70C0F3471222
:103EA0005A7000F01F00987204229A700221D9748F
:103EB0005A7588221A743C22DA704022104B1A700C
:103EC0004FF40042A3F22B331A6070473480044051
:103ED000BC8EFF1F518EFF1FC48EFF1FBD8EFF1FA4
:103EE000508EFF1F6787FF1F0CB0044004D00440B2
:103EF0006887FF1F10B0044000D0044000B00640A7
:103F00002FE400E0164B9B7803F0EC0300F0030273
:103F1000134310F0040F18BF43F01003104A9370BE
:103F200000F00F03042B04D11346927942F04002B3
:103F30009A710B4B5A7902F0EF0210F0100F18BF74
:103F400042F01002064B5A719B7903F0EF0310F018
:103F5000200F18BF43F01003014A9371704700BF50
:103F600000B0064010B5144B1B6813F4006F21D04D
:103F7000124B1B7813F0FF0F06D0104CFFF7C8FA56
:103F8000237813F0FF0FF9D14FF400420C4B1A6065
:103F900000230C4AD37040F203120B490A6004312B
:103FA0000A600A4A13700A4A13700A4B1B680BB165
:103FB00001221A7010BD00BF34800440508EFF1FD4
:103FC00084E100E000B006400CB00440BC8EFF1F4E
:103FD000518EFF1F4C8EFF1F10B50446094A1378FF
:103FE00013F0FF0FFBD120460121FEF751FB2046C5
:103FF0000021FEF729FB044B53F83420034B1A60D1
:1040000010BD00BF508EFF1F90900000C08EFF1F9C
:1040100010B40C4609B140F08000184B1B78984250
:1040200028D0174A126812F4805F21D003F07F0372
:104030000A2B02D01F2B04D006E00022114B1A607D
:1040400002E00022104B1A60002C0CBF44226022B8
:1040500000F07F030A2B02D01F2B05D008E042F4AA
:104060004072084B1A6003E042F44072064B1A603B
:10407000024B18705DF8044B704700BF6887FF1F44
:104080003480044010B0044000D00440124B1B7830
:10409000984220D0114A126812F4805F19D0092B7F
:1040A00002D01A2B04D006E000220D4B1A6002E069
:1040B00000220C4B1A60092802D01A2805D008E00B
:1040C00040F21332064B1A6003E040F21332054B04
:1040D0001A60014B187070476787FF1F34800440D7
:1040E0000CB0044004D0044010B50D4B1B6813F411
:1040F000006F12D021280CD80A4C0B4B53F83030EB
:1041000023600121FEF7C4FA236800221A700120FF
:1041100010BD0020034B186010BD002010BD00BF73
:10412000348004404C8EFF1F909000000D4B1B68A4
:1041300013F4006F13D017280AD140F202320A4B51
:104140001A600A4B5A7B42F001025A7301207047F1
:10415000064B5A7B02F0FE025A7300207047002083
:10416000704700BF3480044008B0044000B00640EF
:104170002DE9F04107461F4B1B6813F4006F37D041
:104180001D4B1B680BB101221A701C4B1C780134AB
:10419000282C28BF00241A4D1A4EDFF86C8017E037
:1041A000FFF794FA40280FDC337913F0800F0FD01B
:1041B0002B780133282B28BF002318F80320D2B214
:1041C000F271DBB22B7003E0FF2801DDFFF7A0F9ED
:1041D0002B78DBB29C42E3D0FFB20B4B1F55012280
:1041E0000A4B1A70E4B2054B1C70BC22054BDA7006
:1041F000BDE8F08134800440C08EFF1FC48EFF1FD5
:10420000BD8EFF1F00B00640548EFF1F508EFF1F53
:104210002DE9F84F0746284B1B6813F4006F49D06F
:10422000264B1B680BB101221A7007EB010B5F458F
:104230003DD2DFF89890224EDFF88C80DFF890A016
:1042400099F800400134282C28BF00243578EDB2BD
:10425000A54220D1BC2388F80330FFF737FA402865
:1042600011DC98F8043013F0800F10D0337801334C
:10427000282B28BF00231AF80320D2B288F8072081
:10428000DBB2337003E0FF2801DDFFF741F933783B
:10429000DBB29D42E1D017F8013B0AF8043001225D
:1042A000084B1A70E4B289F800405F45C8D1BC22BF
:1042B000054BDA70BDE8F88F34800440C08EFF1FD4
:1042C000BD8EFF1F508EFF1F00B00640C48EFF1F23
:1042D000548EFF1F10B5064B1B7813F0FF0F06D04E
:1042E000034CFFF715F9237813F0FF0FF9D110BD38
:1042F000508EFF1F064B1B78DBB2064A1278D2B2F3
:1043000093422CBF273202F1FF32D01A704700BF10
:10431000C48EFF1FBD8EFF1F054B1878C0B2054B22
:104320001B78DBB2984238BF4030C01A704700BFDC
:10433000BC8EFF1F518EFF1F10B4184B1A78D2B2DB
:10434000174B1B78DBB29A4218D001333F2B18D899
:104350001449C85CC0B2DCB211490C70124909683A
:10436000C9B19A4203D300E00023D31A01E04032DE
:10437000D31A1A2B0FDC00230B700CE04FF0FF3028
:1043800009E0084B1878C0B20021054B1970064BA4
:1043900019680029E8D15DF8044B7047BC8EFF1FF7
:1043A000518EFF1F7C8EFF1F4C8EFF1F094B1A780A
:1043B000D2B2094B1B78DBB29A4207D00133402BB3
:1043C00028BF0023054AD05CC0B270474FF0FF30D1
:1043D000704700BFBC8EFF1F518EFF1F7C8EFF1FDA
:1043E0000D4B1B6813F4006F14D00C4BDA7802F0FD
:1043F000CB02DA7040225A74DA7842F03402DA7072
:10440000074B1A78D2B2074B1A70074B1B680BB1D7
:1044100000221A70704700BF3480044000B006408C
:10442000518EFF1FBC8EFF1F4C8EFF1F70B43D4B83
:104430001B7913F0300F33D072B63A4B9B7D03F0EB
:10444000FF022BB9374BDA7940225A7462B627E063
:1044500062B6354B1978C9B2344B1C78E4B2314D91
:10446000334EEB79D8B24B1C402B28BF0023A3421C
:104470001CBFF0541946531E13F0FF02F1D1CAB20B
:10448000294B1A702B4B1B6853B1A1422EBFC4EBB2
:104490000101C4F1400409192729C4BF01221A707F
:1044A000204BDA78D2B212F0800F27D01B7913F0AC
:1044B000800F23D0204B1C78E4B2204B1B78DBB25A
:1044C0009C4210D017491E4D01E0A3420BD001338E
:1044D000282B28BF00230879E85CC0B2C871087D8A
:1044E000C0B20728F1D9DBB214490B700D4B1B7910
:1044F00013F0800F02D07C210A4BD97012F0400FCC
:104500000ED0084B1B7913F0400F09D000220D4B41
:104510001A700D4B1B6803B11A703C22014BDA7004
:1045200070BC704700B00640BC8EFF1F518EFF1F4D
:104530007C8EFF1F4C8EFF1FC48EFF1FBD8EFF1F82
:10454000548EFF1F508EFF1FC08EFF1F174B1A681F
:1045500042F480521A600023154A1370154A1370F2
:10456000154A1370154A1370154A137040F213312F
:10457000144A11604FF4517104321160C0F3443198
:10458000114A1170C0F34711517000F01F00907272
:10459000937013742C23D37040220C4B1A704FF479
:1045A0000032A3F22D331A60704700BF34800440FC
:1045B000388FFF1FCD8EFF1F408FFF1F398FFF1FCA
:1045C000CC8EFF1F08C0044000C0064031E400E06C
:1045D000164B9B7803F0EC0300F00302134310F03A
:1045E000040F18BF43F01003104A937000F00F033C
:1045F000042B04D11346927942F040029A710B4B7E
:104600005A7902F0EF0210F0100F18BF42F01002BA
:10461000064B5A719B7903F0EF0310F0200F18BF7F
:1046200043F01003014A9371704700BF00C0064079
:1046300010B5144B1B6813F4805F21D0124B1B780C
:1046400013F0FF0F06D0104CFEF762FF237813F033
:10465000FF0FF9D14FF400320C4B1A6000230C4AC3
:10466000D37040F203120B490A6004310A600A4A0F
:1046700013700A4A13700A4B1B680BB101221A709F
:1046800010BD00BF34800440CC8EFF1F84E100E0E9
:1046900000C0064008C00440388FFF1FCD8EFF1FAA
:1046A000C88EFF1F10B50446094A137813F0FF0F98
:1046B000FBD120460121FDF7EBFF20460021FDF74D
:1046C000C3FF044B53F83420034B1A6010BD00BFE6
:1046D000CC8EFF1F909000003C8FFF1F10B40C4643
:1046E00009B140F08000104B1B78984219D00F4A56
:1046F000126812F4805F12D003F07F03082B02D1FE
:1047000000220B4B1A60002C0CBF4422602200F0E8
:104710007F03082B03D142F44072054B1A60024B11
:1047200018705DF8044B70476987FF1F34800440A0
:104730000CC00440704700BF10B50D4B1B6813F44C
:10474000805F12D021280CD80A4C0B4B53F8303024
:1047500023600121FDF79CFF236800221A700120CD
:1047600010BD0020034B186010BD002010BD00BF1D
:1047700034800440C88EFF1F909000000D4B1B68D2
:1047800013F4805F13D00E280AD140F202320A4B94
:104790001A600A4B5A7B42F001025A73012070479B
:1047A000064B5A7B02F0FE025A730020704700202D
:1047B000704700BF3480044004C0044000C006407D
:1047C0002DE9F04107461F4B1B6813F4805F37D07B
:1047D0001D4B1B680BB101221A701C4B1C78013455
:1047E000282C28BF00241A4D1A4EDFF86C8017E0E1
:1047F000FEF76CFF40280FDC337913F0800F0FD0E9
:104800002B780133282B28BF002318F80320D2B2BD
:10481000F271DBB22B7003E0FF2801DDFEF778FEBA
:104820002B78DBB29C42E3D0FFB20B4B1F55012229
:104830000A4B1A70E4B2054B1C70AC22054BDA70BF
:10484000BDE8F081348004403C8FFF1F408FFF1F84
:10485000398FFF1F00C00640D08EFF1FCC8EFF1F78
:1048600038B505460C4629B115F8010BFFF7A8FF2E
:10487000013CF9D138BD00BF10B5064B1B7813F0D1
:10488000FF0F06D0034CFEF743FE237813F0FF0F13
:10489000F9D110BDCC8EFF1F064B1B78DBB2064A48
:1048A0001278D2B293422CBF273202F1FF32D01AD3
:1048B000704700BF408FFF1F398FFF1F054B1878CF
:1048C000C0B2054B1B78DBB2984238BF4030C01AEB
:1048D000704700BF388FFF1FCD8EFF1F10B4184BDD
:1048E0001A78D2B2174B1B78DBB29A4218D0013338
:1048F0003F2B18D81449C85CC0B2DCB211490C7007
:1049000012490968C9B19A4203D300E00023D31ABF
:1049100001E04032D31A1A2B0FDC00230B700CE09D
:104920004FF0FF3009E0084B1878C0B20021054B6A
:104930001970064B19680029E8D15DF8044B7047DF
:10494000388FFF1FCD8EFF1FF88EFF1FC88EFF1FF1
:10495000094B1A78D2B2094B1B78DBB29A4207D0C6
:104960000133402B28BF0023054AD05CC0B27047FA
:104970004FF0FF30704700BF388FFF1FCD8EFF1FF5
:10498000F88EFF1F054B1A78D2B2054B1A70054BF3
:104990001B680BB100221A70704700BFCD8EFF1F3D
:1049A000388FFF1FC88EFF1F2F4B1B7913F0200F6E
:1049B00023D02D4BDB79D9B22C4B1B780133402B04
:1049C00028BF00232A4A1278D2B29A4204D0294A38
:1049D000D154D9B2254A1170274A116869B1274AC2
:1049E0001278D2B293422EBFC2EB0303C2F140024F
:1049F0009B18272BC4BF01230B701B4BDB78DBB24A
:104A000013F0800F1CD0184A127912F0800F17D0C3
:104A10001B4A1178C9B2194A1278D2B2914203D115
:104A20006C21114AD1700BE00132282A28BF0022E4
:104A30001449885CC0B20C49C871D2B20F490A70DF
:104A400013F0400F0ED0084B1B7913F0400F09D024
:104A500000220D4B1A700D4B1B6803B11A702C22EB
:104A6000014BDA70704700BF00C00640388FFF1F4F
:104A7000CD8EFF1FF88EFF1FC88EFF1F398FFF1FBF
:104A8000408FFF1FD08EFF1FCC8EFF1F3C8FFF1F5C
:104A900000B585B072B61B4B70221A7041211A4ABC
:104AA00011700F21013A117080221A701A46137882
:104AB00013F0800FFBD0154B186862B6144B984268
:104AC0009CBF00EB8000400001A90A2200F03AFAE6
:104AD0009DF804307BB908E001A9595C31B191809F
:104AE000023201330A2BF7D100E0002301335B00CF
:104AF000084A137003E0074A53800123ECE705B02E
:104B00005DF804FB0000024007000240080002407C
:104B10007F969800F887FF1F08B503681B68C9B225
:104B2000984708BD08B503681B68C9B2984708BD17
:104B300008B503681B68C9B2984708BD08B5036883
:104B40001B68C9B2984708BD08B54B0803F1376028
:104B500000F5D830B0FBF1F0FEF7D8FD08BD00BF7E
:104B600010B514464B0803F1376000F5D830B0FBA0
:104B7000F1F0FEF7CBFD2046FEF730FE10BD00BF82
:104B800008B5FEF75BFE08BD08B50846FEF790FEC7
:104B900008BD00BF08B50846FEF7E4FE08BD00BF2B
:104BA00008B508461146FEF79FFE08BD08B5084641
:104BB000FEF704FF003018BF012008BD08B5084605
:104BC000FEF71EFF003018BF012008BD08B5FFF733
:104BD00017F808BD08B5FFF75DF808BD08B5FFF781
:104BE0001FF808BD08B5FEF7E9FF08BD08B5FFF7D7
:104BF0006BF808BD08B5FEF7F1FF08BD08B508461B
:104C0000FEF72AFF012008BD08B50846FEF724FF7D
:104C1000012008BD10B5144608461146FEF76CFF8A
:104C2000204610BD38B50D46084600F053FC04463A
:104C300028462146FEF760FF204638BD704700BF7A
:104C4000044B00221A714FF47A7199601A73024A68
:104C50001A607047448FFF1F0092000008B5036878
:104C60001B68C9B2984708BD08B503681B68C9B27C
:104C7000984708BD08B503681B68C9B2984708BDC6
:104C800008B503681B68C9B2984708BD08B54B084A
:104C900003F1376000F5D830B0FBF1F0FFF7CAF848
:104CA00008BD00BF10B514464B0803F1376000F58E
:104CB000D830B0FBF1F0FFF7BDF82046FFF722F93E
:104CC00010BD00BF08B5FFF74DF908BD08B508468F
:104CD000FFF782F908BD00BF08B50846FFF7D6F90F
:104CE00008BD00BF08B508461146FFF791F908BD99
:104CF00008B50846FFF7F8F9003018BF012008BDD5
:104D000008B50846FFF712FA003018BF012008BDA9
:104D100008B5FFF701FB08BD08B5FFF747FB08BD65
:104D200008B5FFF709FB08BD08B5FFF7D3FA08BDC2
:104D300008B5FFF755FB08BD08B5FFF7DBFA08BD5E
:104D400008B50846FFF714FA012008BD08B5084663
:104D5000FFF70EFA012008BD10B5144608461146AB
:104D6000FFF756FA204610BD38B50D46084600F04C
:104D7000B1FB044628462146FFF74AFA204638BDD3
:104D8000704700BF044B00221A714FF47A7199608A
:104D90001A73024A1A607047548FFF1F6092000016
:104DA00008B503681B68C9B2984708BD08B5036811
:104DB0001B68C9B2984708BD08B503681B68C9B22B
:104DC000984708BD08B503681B68C9B2984708BD75
:104DD00008B54B0803F1B76000F55840B0FBF1F09F
:104DE000FFF7B4FB08BD00BF10B514464B0803F134
:104DF000B76000F55840B0FBF1F0FFF7A7FB204685
:104E0000FFF7E6FB10BD00BF08B5FFF711FC08BDBA
:104E100008B50846FFF746FC08BD00BF08B50846C0
:104E2000FFF788FC08BD00BF08B508461146FFF72C
:104E300055FC08BD08B50846FFF77EFC003018BFDA
:104E4000012008BD08B50846FFF798FC003018BFE0
:104E5000012008BD08B5FFF731FD08BD08B5FFF713
:104E600077FD08BD08B5FFF739FD08BD08B5FFF7A8
:104E700003FD08BD08B5FFF785FD08BD08B5FFF7C0
:104E80000BFD08BD08B50846FFF79AFC012008BDD8
:104E900008B50846FFF794FC012008BD10B514467C
:104EA00008461146FFF7DCFC204610BD38B50D461C
:104EB000084600F00FFB044628462146FFF7D0FCC9
:104EC000204638BD704700BF044B00221A714FF4D2
:104ED0007A7199601A73024A1A607047648FFF1FD3
:104EE000C092000008B5FEF7F3F908BD08B5FEF75B
:104EF000A3F908BD08B5FEF7CBF908BD08B5FEF764
:104F00009BFA08BD08B5FEF7F1F908BD08B50846DB
:104F1000FEF786FA08BD00BF08B508461146FEF741
:104F200001FA08BD704700BF044B00221A714FF40C
:104F30007A7199601A73024A1A607047748FFF1F62
:104F40002093000030B40023B0FBF2F402FB140401
:104F50001D46092C94BF30343734E4B2CC54B0FB36
:104F6000F2F008B10133EFE70D4400226A7093427A
:104F700007DD885CCC5C8C54C8540132013B9A42FA
:104F8000F7DB084630BC704780F0004002E000BF0D
:104F900081F0004142001FBF5FEA410392EA030F24
:104FA0007FEA226C7FEA236C6AD04FEA1262D2EB6E
:104FB0001363C1BFD218414048404140B8BF5B4273
:104FC000192B88BF704710F0004F40F4000020F00C
:104FD0007F4018BF404211F0004F41F4000121F022
:104FE0007F4118BF494292EA030F3FD0A2F101026C
:104FF00041FA03FC10EB0C00C3F1200301FA03F1AA
:1050000000F0004302D5494260EB4000B0F5000FCC
:1050100013D3B0F1807F06D340084FEA310102F18B
:105020000102FE2A51D2B1F1004F40EBC25008BF3D
:1050300020F0010040EA03007047490040EB000007
:1050400010F4000FA2F10102EDD1B0FA80FCACF136
:10505000080CB2EB0C0200FA0CF0AABF00EBC25035
:1050600052421843BCBFD0401843704792F0000F23
:1050700081F4000106BF80F400000132013BB5E776
:105080004FEA41037FEA226C18BF7FEA236C21D0EC
:1050900092EA030F04D092F0000F08BF0846704751
:1050A00090EA010F1CBF0020704712F07F4F04D11F
:1050B000400028BF40F00040704712F100723CBF32
:1050C00000F50000704700F0004343F0FE4040F45C
:1050D000000070477FEA226216BF08467FEA23631A
:1050E0000146420206BF5FEA412390EA010F40F405
:1050F000800070474FF0000304E000BF10F0004351
:1051000048BF40425FEA000C08BF704743F0964337
:1051100001464FF000001CE050EA010208BF704752
:105120004FF000030AE000BF50EA010208BF7047D9
:1051300011F0004302D5404261EB41015FEA010CEE
:1051400002BF84460146002043F0B64308BFA3F1E6
:105150008053A3F50003BCFA8CF2083AA3EBC253C8
:1051600010DB01FA02FC634400FA02FCC2F12002E7
:10517000BCF1004F20FA02F243EB020008BF20F01E
:105180000100704702F1200201FA02FCC2F1200284
:1051900050EA4C0021FA02F243EB020008BF20EA79
:1051A000DC7070474FF0FF0C1CEAD0521EBF1CEAA7
:1051B000D15392EA0C0F93EA0C0F6FD01A4480EA95
:1051C000010C400218BF5FEA41211ED04FF000637E
:1051D00043EA501043EA5111A0FB01310CF00040AA
:1051E000B1F5000F3EBF490041EAD3715B0040EAD0
:1051F000010062F17F02FD2A1DD8B3F1004F40EBA0
:10520000C25008BF20F00100704790F0000F0CF072
:10521000004C08BF49024CEA502040EA51207F3A36
:10522000C2BFD2F1FF0340EAC250704740F4000011
:105230004FF00003013A5DDC12F1190FDCBF00F002
:1052400000407047C2F10002410021FA02F1C2F1B0
:10525000200200FA02FC5FEA310040F1000053EA4C
:105260004C0308BF20EADC70704792F0000F00F09A
:10527000004C02BF400010F4000F013AF9D040EAA0
:105280000C0093F0000F01F0004C02BF490011F434
:10529000000F013BF9D041EA0C018FE70CEAD15332
:1052A00092EA0C0F18BF93EA0C0F0AD030F0004CB2
:1052B00018BF31F0004CD8D180EA010000F0004066
:1052C000704790F0000F17BF90F0004F084691F024
:1052D000000F91F0004F14D092EA0C0F01D142025E
:1052E0000FD193EA0C0F03D14B0218BF084608D127
:1052F00080EA010000F0004040F0FE4040F4000071
:10530000704740F0FE4040F4400070474FF0FF0C03
:105310001CEAD0521EBF1CEAD15392EA0C0F93EA4A
:105320000C0F69D0A2EB030280EA010C49024FEA9C
:10533000402037D04FF0805343EA111143EA101355
:105340000CF000408B4238BF5B0042F17D024FF40D
:10535000000C8B4224BF5B1A40EA0C00B3EB510FE8
:1053600024BFA3EB510340EA5C00B3EB910F24BFD1
:10537000A3EB910340EA9C00B3EBD10F24BFA3EB56
:10538000D10340EADC001B0118BF5FEA1C1CE0D11E
:10539000FD2A3FF650AF8B4240EBC25008BF20F0D1
:1053A000010070470CF0004C4CEA50207F32C2BF25
:1053B000D2F1FF0340EAC250704740F400004FF0C2
:1053C0000003013A37E792F0000F00F0004C02BFF3
:1053D000400010F4000F013AF9D040EA0C0093F0BD
:1053E000000F01F0004C02BF490011F4000F013B17
:1053F000F9D041EA0C0195E70CEAD15392EA0C0F7F
:1054000008D142027FF47DAF93EA0C0F7FF470AFB6
:10541000084676E793EA0C0F04D14B023FF44CAFF9
:1054200008466EE730F0004C18BF31F0004CCAD18E
:1054300030F000427FF45CAF31F000437FF43CAFCA
:105440005FE700BF42000ED2B2F1FE4F0BD34FF028
:105450009E03B3EB126209D44FEA002343F00043EA
:1054600023FA02F070474FF00000704712F1610F0D
:1054700001D1420202D14FF0FF3070474FF00000DF
:10548000704700BF70B50F4E0F4D761BB61007D09A
:10549000043D0024013455F8043F9847A642F9D151
:1054A0000A4E0B4D761B03F04FFFB61008D0043D9B
:1054B0000024013455F8043F9847A642F9D170BD45
:1054C00070BD00BF5493000054930000749300001B
:1054D0005493000020F0030110F00300C0F100001D
:1054E00051F8043B00F1040C4FEACC0C6FF00002C1
:1054F0001CBF22FA0CF213434FF0010C4CEA0C2CA7
:105500004CEA0C4CA3EB0C0222EA030212EACC1286
:1055100004BF51F8043B0430F4D013F0FF0F1FBF59
:10552000013013F47F4F013013F47F0F18BF0130A7
:10553000704700BF024B13B1024800F005B8704736
:1055400000000000555500000146002002460346B9
:1055500000F018B838B5094D094C641BA41018BFE9
:1055600005EB840505D0013C55F8043D9847002C17
:10557000F9D1BDE8384003F0FDBE00BF00000000D7
:1055800000000000F0B5274C2668D6F8484185B0E9
:105590000746002C41D065681F2D1EDD224818B932
:1055A0004FF0FF3005B0F0BD4FF4C8700391029288
:1055B0000193AFF300800399029A019B04460028EF
:1055C000EED0D6F848512560002060600546C6F848
:1055D0004841C4F88801C4F88C013FB9AB1C0020D5
:1055E0000135656044F8231005B0F0BD04EB85007B
:1055F0004FF0010CC0F88820D4F888610CFA05F24D
:105600001643022FC4F88861C0F80831E6D1D4F8F7
:105610008C311A43C4F88C21E0E706F5A674C6F86D
:105620004841B8E74493000000000000452900000D
:10563000C328443944314429432944294429433166
:1056400043314329432943294329432943294331EA
:105650004331433103314331433143294329432902
:105660004329432943310331433144294429432108
:1056700043294331433143314329432943294331AA
:1056800043314339033144314331432943294329C9
:105690004329433143314331433143314331433172
:1056A0004331433144314329432943294331433171
:1056B00043314329432943294329033103314329F2
:1056C0004329432943314331433143294331433152
:1056D0004331432943314331433143314331442939
:1056E000432944390331821800004529C3188462D4
:1056F000C3F6C3F6C3F6C3F6C3F6C3F6C3F6C3F6E2
:10570000C3F6C3F6C3F6C3F6C3F6C3F6C3F6C3F6D1
:10571000C3F6C3F6C3F6C3F6C3F6C3F6C3F6C3F6C1
:10572000C3F6C3F6C3F6C3F6C3F6C3F6C3F6C3F6B1
:10573000C3F6C3F6C3F6C3F6C3F6C3F6C3F6C3F6A1
:10574000C3F6C3F6C3F6C3F6C3F6C3F6C3F6C3F691
:10575000C3F6C3F6C3F6C3F6C3F6C3F6C3F6C3F681
:10576000C3F6C3F6C3F6C3F6C3F6C3F6C3F6C3F671
:10577000C3F6C3F6C3F6C3F6C3F6C3F6C3F6C3F661
:10578000C3F6C3F6C3F6C3F6C3F6C3F6C3F6C3F651
:10579000C3F6C3F6C3F6C3F6C3F6C3F6C3F6C3F641
:1057A000C3F6C3F6C3F6C3F68439C3180752C3F66B
:1057B000C3F6C3F6C3F6C3F6C3F6C3F6C3F6C3F621
:1057C000C3F6C3F6C3F6C3F6C3F6C3F6C3F6C3F611
:1057D000C3F6C3F6C3F6C3F6C3F6C3F6C3F6C3F601
:1057E000C3F6C3F6C3F6C3F6C3F6C3F6C3F6C3F6F1
:1057F000C3F6C3F6C3F6C3F6C3F6C3F6C3F6C3F6E1
:10580000C3F6C3F6C3F6C3F6C3F6C3F6C3F6C3F6D0
:10581000C3F6C3F6C3F6C3F6C3F6C3F6C3F6C3F6C0
:10582000C3F6C3F6C3F6C3F6C3F6C3F6C3F6C3F6B0
:10583000C3F6C3F6C3F6C3F6C3F6C3F6C3F6C3F6A0
:10584000C3F6C3F6C3F6C3F6C3F6C3F6C3F6C3F690
:10585000C3F6C3F6C3F6C3F6C3F6C3F6C3F6C3F680
:10586000C3F6C3F6C3F6C3F648C544318883C3F60E
:10587000C3F6C3F6C3F6C3F645E6044A00000000CB
:105880000000000000000000000000000000000018
:105890000000000000000000000000000000000008
:1058A00000000000000000000000000000000000F8
:1058B00000000000000000000008000800000000D8
:1058C00000000000000000000000000000080008C8
:1058D00000080000000000000000000800080000B0
:1058E000000000000008C1284031401800000000FE
:1058F0000000000800080000000000000008000888
:105900000000000000000000000000000000000097
:10591000000000000000000000000000C3F6C3F615
:10592000C3F6C3F6C3F6C3F6C3F6475AC783C3F636
:10593000C3F6C3F6C3F6C3F646E6044A0000000009
:105940000000000000000000000000000000000057
:1059500001000200000000000000C3F6C3F6C3F619
:10596000C3F600000000000000000000C3F6C3F60C
:10597000C3F600000000C22049C5C3F6C3F600000C
:10598000C68BC3F6C3F600000000C3F6C3F6C3F629
:10599000C3F6C3F6C3F600000000C3F6C3F600006A
:1059A00000000000C3F6C3F6C3F6C3F6C3F6C22870
:1059B00000000000C3F6C3F6C2200000C3F6C3F621
:1059C00000000000000000000000000000000000D7
:1059D000000000000000000000000000C3F6C3F655
:1059E000C3F6C3F6C3F6C3F6C3F686528783C3F67F
:1059F000C3F6C3F6C3F6C3F646E6044A0000010048
:105A00000100000000000000000000000000000095
:105A10000000010000000000C3F6C3F6C3F6C3F6A1
:105A2000C3F6C3F6000000000000C3F6C3F6C3F6D9
:105A3000C3F686BD0000C118C7D5C3F6C3F6000083
:105A4000459CC3F6C3F600000000C3F6C3F6C3F6D8
:105A5000C3F6C3F6C3F600000000C3F6C3F60000A9
:105A60000000C3F6C3F6C3F6C3F6C3F6C3F6C3F627
:105A700000000000C3F6C3F6026B0000C3F6C3F6D5
:105A80000000000000000000000000000000000016
:105A9000000000000000000000000000C3F6C3F694
:105AA000C3F6C3F6C3F6C3F6C3F646528783C3F6FE
:105AB000C3F6C3F6C3F6C3F646E6044A0000010087
:105AC00000000000000000000000010000000000D5
:105AD0000000000041080000C3F6C3F6000000000B
